:100000000C9463000C948B000C948B000C943608B9
:100010000C9436080C9436080C948B000C948007D2
:100020000C948B000C948B000C948B000C941D068C
:100030000C948B000C948B000C948B000C948B0014
:100040000C94F4040C948B000C94E4020C94BE0207
:100050000C948B000C948B000C948B000C948B00F4
:100060000C9458090C948B00000000002400270019
:100070002A0000000000250028002B0000000008D6
:10008000000201000003040700000000000000005F
:1000900000000000230026002900040404040404D6
:1000A0000404020202020202030303030303010227
:1000B00004081020408001020408102001020408F6
:1000C000102090138A1311241FBECFEFD8E0DEBF9B
:1000D000CDBF11E0A0E0B1E0E0E5F2E302C00590A1
:1000E0000D92A23DB107D9F726E0A2EDB1E001C023
:1000F0001D92A732B207E1F710E0C2E6D0E004C0DB
:100100002197FE010E94CC14C136D107C9F70E9485
:100110007F0C0C941B190C940000FC01918D828DB6
:10012000981761F0828DDF01A80FB11D5D968C914B
:10013000928D9F5F9F73928F90E008958FEF9FEF56
:100140000895FC01918D828D981731F0828DE80F12
:10015000F11D858D90E008958FEF9FEF0895FC01CC
:10016000918D228D892F90E0805C9F4F821B910999
:100170008F73992708958EE993E00E94AF0021E0E4
:10018000892B09F420E0822F0895FC01848DDF0182
:10019000A80FB11DA35ABF4F2C91848D90E00196FA
:1001A0008F739927848FA689B7892C93A089B189E9
:1001B0008C9180648C93938D848D981306C00288F3
:1001C000F389E02D80818F7D80830895EF92FF92E7
:1001D0000F931F93CF93DF93EC0181E0888F9B8D6A
:1001E0008C8D981305C0E889F989808185FD24C02C
:1001F000F62E0B8D10E00F5F1F4F0F731127E02EAF
:100200008C8DE8120CC00FB607FCFACFE889F9898B
:10021000808185FFF5CFCE010E94C500F1CF8B8D87
:10022000FE01E80FF11DE35AFF4FF0820B8FEA89C0
:10023000FB898081806207C0EE89FF896083E8893D
:10024000F98980818064808381E090E0DF91CF91A3
:100250001F910F91FF90EF900895CF93DF93EC01E2
:10026000888D8823C9F0EA89FB89808185FD05C0D6
:10027000A889B9898C9186FD0FC00FB607FCF5CF10
:10028000808185FFF2CFA889B9898C9185FFEDCF58
:10029000CE010E94C500E7CFDF91CF91089580E0A5
:1002A00090E0892B29F00E94BB0081110C94000082
:1002B0000895833081F028F4813099F08230A1F0E4
:1002C00008958730A9F08830B9F08430D1F4809156
:1002D00080008F7D03C0809180008F7780938000A5
:1002E000089584B58F7702C084B58F7D84BD08954D
:1002F0008091B0008F7703C08091B0008F7D809394
:10030000B00008953FB7F89480910C0390910D03CD
:10031000A0910E03B0910F0326B5A89B05C02F3FF7
:1003200019F00196A11DB11D3FBFBA2FA92F982F1B
:100330008827820F911DA11DB11DBC01CD0142E096
:10034000660F771F881F991F4A95D1F7089520914E
:100350009702309198022817390771F4909195020D
:1003600080919602981741F0E0919502F0E0EB5AE7
:10037000FD4F808190E008958FEF9FEF08950895DD
:100380001F93CF93DF93DC015C962D913C915D9799
:100390002115310539F481E090E013969C938E93FA
:1003A00012973DC05196ED91FC91529750969C91B9
:1003B0005097892F80951FB75E964C915E9741FBB1
:1003C000772770F941FD6095F8944081772311F00B
:1003D000492B01C048234083E9012197F1F748E008
:1003E000508160FF02C0592B01C058235083E9019E
:1003F0002197F1F76695415099F7772321F0908185
:100400008923808303C08081982B90831FBF5C96D3
:100410008D919C915D970197F1F721E030E0C90142
:10042000DF91CF911F910895FC0123A1222321F098
:100430008EE993E00C94E6000C94C00120919702A1
:10044000309198022817390771F480919602209113
:10045000950290E0805C9F4F821B910960E470E000
:100460000E949D14089580E090E0089520919702E5
:100470003091980228173907B9F49091950280912C
:100480009602981789F0E0919502F0E0EB5AFD4F43
:1004900080812091950230E02F5F3F4F2F733327EB
:1004A0002093950290E008958FEF9FEF089585EDDA
:1004B0008093BC008091BC0084FDFCCF10922F0281
:1004C000089540910902262F30E0240F311D21327A
:1004D0003105DCF420912F022430C9F4FC0180E0C6
:1004E00090E0861758F4309109022191DC01A9515E
:1004F000BE4FA30FB11D2C930196F3CF809109023B
:10050000680F6093090280E0089581E0089582E019
:10051000089508958FEF9FEF08958FEF9FEF08954F
:100520008091E60190E09195819591090895CF938E
:10053000DF9300D0CDB7DEB7CB01642F49835A8358
:100540000E9461024981842F5A81952F0F900F904C
:10055000DF91CF910895CF93DF931F92CDB7DEB790
:10056000698361E0CE0101960E94610281E090E022
:100570000F90DF91CF9108950E94DE171F920F9286
:100580000FB60F9211242F933F934F935F936F9366
:100590007F938F939F93AF93BF93EF93FF938EE9D6
:1005A00093E00E94C500FF91EF91BF91AF919F91A1
:1005B0008F917F916F915F914F913F912F910F900C
:1005C0000FBE0F901F9018951F920F920FB60F92AB
:1005D00011242F938F939F93EF93FF93E091AE039A
:1005E000F091AF038081E091B403F091B50382FDF7
:1005F00012C090818091B7038F5F8F732091B803F1
:10060000821751F0E091B703F0E0E256FC4F958F6E
:100610008093B70301C08081FF91EF919F918F91EB
:100620002F910F900FBE0F901F901895CF93DF93CF
:10063000282F30E0F901E458FF4F8491F901E25589
:10064000FF4FD491F901E656FF4FC491CC2391F0AE
:1006500081110E945901EC2FF0E0EE0FFF1FE057CF
:10066000FF4FA591B491EC91ED2381E090E021F44E
:1006700080E002C080E090E0DF91CF9108951F9369
:10068000CF93DF93282F30E0F901E458FF4F849196
:10069000F901E255FF4FD491F901E656FF4FC4919D
:1006A000CC23C9F0162F81110E945901EC2FF0E0E4
:1006B000EE0FFF1FEE58FF4FA591B4918FB7F8943E
:1006C000111105C09C91ED2FE095E92302C0EC913A
:1006D000ED2BEC938FBFDF91CF911F910895CF93B6
:1006E000DF9390E0FC01E255FF4F2491FC01E656B8
:1006F000FF4F8491882361F190E0880F991FFC01DE
:10070000E859FF4FC591D491FC01EE58FF4FA591D8
:10071000B491611109C09FB7F89488812095822314
:100720008883EC912E230BC0623061F49FB7F8945C
:100730003881822F809583238883EC912E2B2C93F4
:100740009FBF06C08FB7F894E8812E2B28838FBFF8
:10075000DF91CF9108951F93CF93DF93182FEB0173
:1007600061E00E946F03209711F460E004C0CF3F66
:10077000D10539F461E0812FDF91CF911F910C9465
:100780003F03E12FF0E0E458FF4FE491E330F9F04C
:1007900048F4E130B9F0E230A1F584B5806284BD5F
:1007A000C8BD34C0E730E9F0E83019F1E43049F56C
:1007B00080918000806280938000D0938B00C093F2
:1007C0008A0024C084B5806884BDC7BD1FC08091E5
:1007D0008000806880938000D0938900C093880057
:1007E00015C08091B00080688093B000C093B300C2
:1007F0000DC08091B00080628093B000C093B400BF
:1008000005C0C038D1050CF0B5CFAFCFDF91CF9187
:100810001F9108958E3008F08E5087708064809309
:100820007C0080917A00806480937A0080917A00C5
:1008300086FDFCCF809178002091790090E0922B8A
:1008400008958230910538F0880F991F880F991FFD
:1008500005970197F1F70895CF92DF92EF92FF92FB
:100860000F931F93CF93DF93FC01C6A0D7A0F3E0B3
:10087000CF1AD1088C010A581F4FF80180810E94BD
:100880001603892B01F5E12CF12CC0E0D0E0C60164
:100890000E942104F80180810E9416030E2C02C0E0
:1008A000880F991F0A94E2F7C82BD92BFFEFEF1A94
:1008B000FF0A28E0E216F10451F7C6010E94210464
:1008C000CE01992702C08FEF9FEFDF91CF911F914B
:1008D0000F91FF90EF90DF90CF900895CF93DF932B
:1008E000FC0124A1222371F0EC010E942C0488A7B2
:1008F00099A79095991F9927991F892F90E0DF91CB
:10090000CF910895FC0123A1222331F08EE993E0D9
:10091000DF91CF910C94AF00DF91CF910C941E0228
:10092000FC0124A1222351F020A531A54FEF5FEF58
:1009300051A740A737FF0CC00C942C04FC0123A145
:10094000222321F08EE993E00C948D000C94360262
:10095000C90108950E949004992708958F929F924B
:10096000AF92BF92CF92DF92EF92FF926B017C0128
:100970000E9482014B015C01C114D104E104F10425
:10098000F1F00E948201DC01CB0188199909AA09C2
:10099000BB09883E9340A105B10570F321E0C21A5E
:1009A000D108E108F10888EE880E83E0981EA11CAA
:1009B000B11CC114D104E104F10419F7DDCFFF909B
:1009C000EF90DF90CF90BF90AF909F908F90089561
:1009D0002FB7F894609108037091090380910A037E
:1009E00090910B032FBF08951F920F920FB60F9295
:1009F00011242F933F938F939F93AF93BF93809135
:100A0000080390910903A0910A03B0910B03309160
:100A1000070323E0230F2D3720F40196A11DB11DFC
:100A200005C026E8230F0296A11DB11D20930703E0
:100A30008093080390930903A0930A03B0930B03D8
:100A400080910C0390910D03A0910E03B0910F03C0
:100A50000196A11DB11D80930C0390930D03A093EB
:100A60000E03B0930F03BF91AF919F918F913F9170
:100A70002F910F900FBE0F901F901895CF92DF927D
:100A8000EF92FF92CF93DF93EC01603282E0780720
:100A90000CF03DC077FD06C0653B71052CF064EBA2
:100AA00070E002C060E070E0898128E830E0690110
:100AB000C81AD10887FDD394CC0CDD1CCC0CDD1CEE
:100AC0000D2C000CEE08FF088A8128E532E0281B77
:100AD000310987FD3395220F331F220F331FC901C0
:100AE000330FAA0BBB0B9C01AD012C193D094E091C
:100AF0005F09DB010E94CD1824EB30E040E050E0BC
:100B00000E94A318C20ED31EE41EF51EB6018881F2
:100B10008C3080F5998148E850E0491B510997FDD8
:100B20005395440F551F440F551F6417750784F0E4
:100B30009A8128E532E0291B310997FD3395220F70
:100B4000331F220F331FAB01261737070CF4A901FF
:100B500042505109440F551F2FB7F89490E0FC0103
:100B6000EE0FFF1F8E0F9F1FFC01EC57FB4F5283B0
:100B700041832FBFDF91CF91FF90EF90DF90CF9017
:100B800008951F93CF93DF93EC01162F88818C304B
:100B900008F04EC061E0812F0E946F038881E82F2A
:100BA000F0E09F01220F331FE20FF31FEC57FB4FC2
:100BB0001F7790819078192B108319821A826CE02C
:100BC0000E9491149CE0899FB001112440E050E004
:100BD0009A01260F371FF901EE0FFF1F2E0F3F1F3F
:100BE000F901EC57FB4F908197FD16C04F5F5F4FA7
:100BF0004C30510569F781110FC01092800082E0DE
:100C0000809381001092850010928400B19A8091A7
:100C10006F00826080936F00E881F0E0CF01880F61
:100C2000991FE80FF91FEC57FB4F80818068808384
:100C30008881DF91CF911F9108951F920F920FB677
:100C40000F9211242F933F934F935F936F937F9352
:100C50008F939F93AF93BF93EF93FF93809106037E
:100C600087FF05C010928500109284001BC0209160
:100C70000603022E000C330B8091A80490E0281785
:100C8000390784F480910603082E000C990BFC01AF
:100C9000EE0FFF1F8E0F9F1FFC01EC57FB4F808153
:100CA00087FD15C0809106038F5F80930603209116
:100CB0000603022E000C330B8091A80490E0281745
:100CC0003907C4F4809106038C3064F113C080911D
:100CD0000603082E000C990BFC01EE0FFF1F8E0F70
:100CE0009F1FFC01EC57FB4F808160E08F770E94D3
:100CF0003F03D8CF80918400909185000496803482
:100D00009C4918F480E49CE905C08091840090918E
:100D10008500049690938900809388008FEF8093DC
:100D200006033BC02091840030918500809106032A
:100D3000082E000C990BFC01EE0FFF1F8E0F9F1F5A
:100D4000FC01EC57FB4F81819281820F931F90939E
:100D500089008093880080910603082E000C990B6F
:100D6000FC01EE0FFF1F8E0F9F1FFC01EC57FB4F86
:100D7000808187FF12C080910603082E000C990B1A
:100D8000FC01EE0FFF1F8E0F9F1FFC01EC57FB4F66
:100D9000808161E08F770E943F03FF91EF91BF91C7
:100DA000AF919F918F917F916F915F914F913F9103
:100DB0002F910F900FBE0F901F9018950F931F93B8
:100DC000CF93DF93EC01E62FF0E0EE0FFF1FE65725
:100DD000FE4F00810F8F118118A369A31B821A8215
:100DE00088EE93E0A0E0B0E08C839D83AE83BF8368
:100DF00086E191E0998388831F8A1E8A198E188E56
:100E00001B8E1A8E1D8E1C8E6E8D6E7F6D7F6E8F6B
:100E10006695617081E06827802F0E943F0361E042
:100E2000802F0E946F03802F90E0FC01E255FF4F5E
:100E3000E491E88BFC01E656FF4FE491F0E0EE0F01
:100E4000FF1FEE58FF4F859194919A8B898B60E03C
:100E5000812F0E946F038E8D81FD04C061E0812F80
:100E60000E943F031C87812F90E0FC01E255FF4F59
:100E7000E491ED87FC01E656FF4FE491F0E0EE0FC0
:100E8000FF1FE057FF4F859194919F878E8786E2E1
:100E900091E099838883FE01E259FF4F118210820D
:100EA000138212821582148240E050E06DEB71E0F3
:100EB000CF010E94FA0B1DA21CA288A1FE01EA58D4
:100EC000FF4F80838F8D3196808381E099A195308B
:100ED00009F080E08BA3DF91CF911F910F910895CE
:100EE0001F93CF93DF93EC01162F61E089810E945D
:100EF0006F03612F8981DF91CF911F910C943F0384
:100F00001F920F920FB60F9211240F931F932F93DE
:100F10003F934F935F936F937F938F939F93AF9381
:100F2000BF93CF93EF93FF9382E00E941603C82FE5
:100F300080919F029091A00201969093A0028093CD
:100F40009F0280910503843618F085E080939A0211
:100F500090919A02933079F018F4923039F072C07F
:100F6000943011F1953009F44AC06CC0C1116AC0C7
:100F70001092050329C0C13009F064C0E091050357
:100F800081E08E0F80930503F0E080919F029091A5
:100F9000A002E756FD4F80871092A00210929F0298
:100FA00084E080939A024EC0C11114C0E091050301
:100FB00081E08E0F80930503F0E080919F02909175
:100FC000A002E756FD4F80871092A00210929F0268
:100FD00083E0E7CF80919F029091A0028536910532
:100FE00088F185E080939A020E94E80460939B0256
:100FF00070939C0280939D0290939E0223C00E9456
:10100000E80400919B0210919C0220919D02309176
:101010009E02DC01CB01801B910BA20BB30B893C20
:101020009105A105B10540F0109205031092A002B0
:1010300010929F0282E0B5CFC11104C01092A002AD
:1010400010929F02FF91EF91CF91BF91AF919F912D
:101050008F917F916F915F914F913F912F911F9150
:101060000F910F900FBE0F901F9018951F920F9227
:101070000FB60F9211242F933F934F935F936F936B
:101080007F938F939F93AF93BF93EF93FF93E091E1
:101090009702F0919802309709F451C0968DA68579
:1010A000B785858591FF04C09C91892329F447C0A9
:1010B0009C91892309F043C0A389B4899C918589B7
:1010C000809589238C93868997890197F1F7608DA4
:1010D000718DA685B785558538E020E0CB01019755
:1010E000F1F7822F90E095958795282F4C91452315
:1010F00009F02068315091F7868D81FD209580910F
:10110000960290E001968F739927309195023817D7
:1011100049F0A0919602B0E0AB5ABD4F2C9380935A
:10112000960203C0868D8160868F828D938D019794
:10113000F1F7A389B4899C918589892B8C93FF91C0
:10114000EF91BF91AF919F918F917F916F915F913F
:101150004F913F912F910F900FBE0F901F901895B8
:10116000E0919702F0919802E817F90769F4A389D2
:10117000B4899C918589809589238C9310929802DB
:101180001092970281E0089580E00895CF93DF9355
:10119000EC0188E690E09FA38EA38BA1882339F011
:1011A00060E875E280E090E00E941E0B7BC01B8E21
:1011B0001A8E198E188E1F8A1E8A8DE991E09D8FD6
:1011C0008C8F8C85863108F04DC02DEB30E03F8B45
:1011D0002E8B2BE931E0398F288F2CE231E03B8FC9
:1011E0002A8F90916800883050F021E08E3008F40A
:1011F00020E081E001C0880F2A95EAF701C084E071
:10120000892B809368009C85983038F09E3040F0A0
:10121000963148F020E030E008C02DE630E005C00F
:101220002BE630E002C02CE630E03C8B2B8B983074
:1012300030F481E001C0880F9A95EAF70EC0292F9B
:1012400030E09E3018F42850310902C02E50310988
:1012500081E001C0880F2A95EAF78D8B8C8D9D8DDA
:101260000197F1F78A8D9B8D892BE1F08091970290
:10127000909198028C179D07A9F0009711F00E9499
:10128000B0088E8D8E7F8E8F1092960210929502EE
:10129000D0939802C0939702EB89FC8990818D8945
:1012A000892B808360E08F8DDF91CF910C946F0349
:1012B0001F920F920FB60F9211242F933F934F93CB
:1012C0005F936F937F938F939F93AF93BF93EF93AE
:1012D000FF938091B900887F803609F49CC068F53F
:1012E000883209F45BC090F4803109F454C038F4BA
:1012F000882309F4F6C0883009F44DC0F6C088315F
:1013000009F44CC0803209F45DC0EFC0803409F4A8
:1013100068C048F4803309F455C0883309F0E5C04B
:1013200080932E02D8C0803509F44FC0883509F467
:101330005DC0883409F0D9C0D6C0883909F4C7C067
:10134000A8F4883709F467C038F4883609F463C014
:10135000803709F460C0C9C0883809F4B8C0803942
:1013600009F45FC0803809F0C0C05BC0803B09F45D
:1013700086C038F4803A09F466C0883A09F47FC020
:10138000B4C0803C09F4A7C0883C09F4A4C0883BE1
:1013900009F48AC0AAC08091540210C090915302EF
:1013A00080915202981770F5E091530281E08E0F00
:1013B00080935302F0E0EE5CFD4F80818093BB0090
:1013C00085EC86C080932E028EC0E091530281E0AE
:1013D0008E0F809353028091BB00F0E0EE5CFD4FD6
:1013E000808390915302809152026EC0E09153022B
:1013F00081E08E0F809353028091BB00F0E0EE5CA1
:10140000FD4F80838091310281116DC081E0809316
:10141000300284EA61C083E080932F0210922D0293
:10142000CFCF80912D02803208F051C0E0912D0283
:1014300081E08E0F80932D028091BB00F0E0E35F8E
:10144000FD4F8083BDCF85EC8093BC0010922F02AE
:1014500080912D02803230F4E0912D02F0E0E35FC4
:10146000FD4F108260912D0270E0E0910B02F0912F
:101470000C028DE092E0099510922D0236C084E0B6
:1014800080932F0210920A0210920902E091070243
:10149000F0910802099580910902811105C081E04F
:1014A000809309021092E701E0910A0281E08E0F19
:1014B00080930A02F0E0E951FE4F80818093BB00E7
:1014C00090910A0280910902981708F479CF85E873
:1014D0008093BC000AC085EC8093BC0010922F0260
:1014E00004C010922E020E945702FF91EF91BF910B
:1014F000AF919F918F917F916F915F914F913F91AC
:101500002F910F900FBE0F901F90189520917A0386
:10151000FC01222319F0EA5BFC4F02C0EE5EFC4F97
:10152000808108950F931F93CF93DF938C010E94C6
:10153000860AC0E1D3E08883C80101960E94860A2A
:1015400089838091100390911103DF91CF911F91B6
:101550000F910895682F8EE993E00C94E600CF92E6
:10156000DF92FF920F931F93CF93DF931F92CDB71C
:10157000DEB7162FF72E082F82E099830E94AA0A61
:1015800082EEC82E81E0D82E412F5F2D602F9981E9
:10159000792FF6014083518362837383812F0E94E8
:1015A000AA0AF60181810E94AA0AF60182810E949C
:1015B000AA0AF60183810F90DF91CF911F910F91BD
:1015C000FF90DF90CF900C94AA0A8FEF0E94AA0A96
:1015D00085E50E94AA0A42E050E06BEB71E08EE9DB
:1015E00093E00C94F30ACF92DF92EF92FF920F9365
:1015F0001F93CF93DF936C017A018B01C0E0D0E0A1
:10160000CE15DF0589F0D8016D918D01D601ED91E0
:10161000FC910190F081E02DC6010995892B11F410
:101620007E0102C02196ECCFC701DF91CF911F91BF
:101630000F91FF90EF90DF90CF900895CF92DF92BF
:10164000EF92FF926B017C01E091AE03F091AF034A
:1016500082E08083C11481EED806E104F104B1F088
:1016600060E079E08DE390E0A70196010E94811887
:10167000DA01C9010197A109B109B695A795979516
:1016800087959C01211580E13807B8F0E091AE0301
:10169000F091AF03108260E874E88EE190E0A7015A
:1016A00096010E948118DA01C9010197A109B109C7
:1016B000B695A795979587959C01E091AA03F0911F
:1016C000AB033083E091AC03F091AD032083109223
:1016D000B603E091B203F091B30386E08083E0911A
:1016E000B003F091B103808180618083E091B00309
:1016F000F091B103808188608083E091B003F09124
:10170000B103808180688083E091B003F091B103E0
:1017100080818F7D8083FF90EF90DF90CF90089540
:10172000CF93DF938F3F910519F014F08FEF90E086
:10173000EC01C1308FEFD80714F4C1E0DFEF8091E6
:10174000E2049091E3048C179D0721F1D093E30408
:10175000C093E204D7FD0BC061E08CED94E00E94E1
:1017600070078FE090E00197F1F7BE010DC060E0D7
:101770008CED94E00E9470078FE090E00197F1F704
:10178000662777276C1B7D0B8091DC04DF91CF915E
:101790000C94AB03DF91CF9108950F931F9390E0CA
:1017A000FC01E255FF4FA491FC01E656FF4FE49186
:1017B000F0E0EE0FFF1FE057FF4F859194918A01F3
:1017C0009B013F704A2F6A2F0E943A0C61157105E8
:1017D0008105910549F0DC01CB010196A11DB11DE8
:1017E000BC01CD019F7003C060E070E0CB011F9190
:1017F0000F910895EF92FF920F931F93CF93DF9372
:10180000EC017B018A0188819981009729F02A8166
:101810003B8124173507F8F4B8016F5F7F4F0E94B2
:101820001417009759F0998388831B830A832C81AE
:101830003D81232B81F4FC0110820DC088819981A8
:10184000009711F00E947C16198218821D821C825A
:101850001B821A8207C01D830C83B701888199817E
:101860000E94EC17CE01DF91CF911F910F91FF9055
:10187000EF900895CF92DF92EF92FF920F931F9314
:10188000E82FF92F05C0015011092109310961F133
:10189000908196239417B9F305C0015011092109CD
:1018A000310911F1908196239413F7CFC12CD12CDB
:1018B000E12CF12C0AC08FEFC81AD80AE80AF80AFE
:1018C0000C151D052E053F0579F0808186238417B0
:1018D00091F36C2D7D2D8E2D9F2D1F910F91FF90DB
:1018E000EF90DF90CF90089560E070E080E090E0AE
:1018F0001F910F91FF90EF90DF90CF900895CF93BD
:10190000DF93CDB7DEB72F970FB6F894DEBF0FBECB
:10191000CDBF789484B5826084BD84B5816084BD78
:1019200085B5826085BD85B5816085BD80916E007D
:10193000816080936E0010928100809181008260AE
:1019400080938100809181008160809381008091EB
:1019500080008160809380008091B10084608093DA
:10196000B1008091B00081608093B00080917A00D6
:10197000846080937A0080917A00826080937A00FC
:1019800080917A00816080937A0080917A008068EB
:1019900080937A001092C10010927F04109280040C
:1019A000109281041092820410923D0410923E0421
:1019B00010923F04109240040E94E8046B017C01E5
:1019C0004B015C0128EB820E2BE0921EA11CB11C86
:1019D0000E94E8046C157D058E059F0528F086168B
:1019E0009706A806B906A0F78EE993E090937E04C7
:1019F00080937D0460E072EC81E090E00E941E0B19
:101A00000E94E80460933D0470933E0480933F0479
:101A10009093400480917D0490917E04DC01ED91CF
:101A2000FC910280F381E02D41E150E06CEA71E02D
:101A300009950E94E8046B017C014B015C01BAE04E
:101A40008B0E911CA11CB11C0E94E8046C157D0535
:101A50008E059F0528F086169706A806B906A0F7FA
:101A600081E08093510461E08DE00E946F0361E0AA
:101A70008DE00E943F036CE271E080E090E00E9404
:101A8000AE0460E08DE00E943F0360E072EC81E014
:101A900090E00E941E0B64EF71E080E090E00E94F5
:101AA000AE0461E083E10E946F0361E083E10E9484
:101AB0003F0364E670E080E090E00E94AE0461E0E5
:101AC00083E10E946F0360E083E10E943F0349E0ED
:101AD00050E06EEB71E08EE993E00E94F30A4091D2
:101AE000AD045091AE046091A9047091AA048EE9EE
:101AF00093E00E94F30A42E050E06BEB71E08EE964
:101B000093E00E94F30A11E064EFE62EFF24F394C1
:101B100076E3272E71E0372EC090C304D090C40422
:101B20000E94E8048090B3049090B404A090B5049F
:101B3000B090B6049B01AC01281939094A095B0928
:101B400049015A0139E083169104A104B10408F453
:101B500061C06093B3047093B4048093B504909310
:101B6000B60460E08091B0040E946F038091B004DD
:101B70000E940A044091B7045091B8046091B904DE
:101B80007091BA04452B462B472B69F4AC01092E02
:101B9000000C660B770B4093BF045093C004609316
:101BA000C1047093C2044091BF045091C00460917D
:101BB000C1047091C204841B950B97FF03C09195DB
:101BC0008195910944979CF48091BB049091BC0449
:101BD000A091BD04B091BE040196A11DB11D8093DA
:101BE000BB049093BC04A093BD04B093BE04809149
:101BF000B7049091B804A091B904B091BA040196C9
:101C0000A11DB11D8093B7049093B804A093B904AB
:101C1000B093BA048091B7049091B804A091B9042C
:101C2000B091BA040597A105B10571F51092B704FA
:101C30001092B8041092B9041092BA048091BB04B7
:101C40009091BC04A091BD04B091BE040397A1057E
:101C5000B10570F08091BF049091C004A091C104BF
:101C6000B091C2046C019093C4048093C30404C077
:101C7000C090C304D090C4041092BB041092BC0462
:101C80001092BD041092BE04C60164E670E00E948A
:101C90009D146830710528F4FB01E65FFE4F8081DA
:101CA00001C080E080939D030E94E8040E94F31726
:101CB00020E030E04AE754E40E943F152091990368
:101CC00030919A0340919B0350919C030E94D2143F
:101CD0006093950370939603809397039093980372
:101CE000C0909303D0909403C114D10409F462C04E
:101CF000D60193968C91882321F18EE993E00E947E
:101D00002D01E091B003F091B10380818F7E80833B
:101D1000E091B003F091B1038081877F8083E091EF
:101D2000B003F091B10380818F778083E091B0039D
:101D3000F091B10380818F7D80838091B80380937F
:101D4000B70360E0F601878D0E946F03D6015F96AE
:101D50008C910E9416035C01F60183A1882319F07F
:101D6000C6010E94C608AB28F9F4C6010E946E04A1
:101D700018161906FCF4D601ED91FC910680F78146
:101D8000E02DC60109958F3F9105A4F4D601A65810
:101D9000BF4FF601E558FF4F009719F480818C93EF
:101DA00009C08C93808306C0F601E658FF4F10826D
:101DB00031961082109292038EE993E00E94AF0058
:101DC0001816190654F41093920310927A038EE9B0
:101DD00093E00E948D008093910380919203882369
:101DE00009F485C42091910380919003253559F41D
:101DF000811109C080918F038F3F19F510938E03D5
:101E0000109390031EC020938F038823D1F08091FC
:101E10008E03823019F420938D0307C0833028F09D
:101E200090918D03915090938D0390E030917A03BF
:101E3000FC01332319F0EA5BFC4F02C0EE5EFC4F5D
:101E4000208380918E038F5F843318F480938E03F8
:101E500004C010928E031092900380919003882307
:101E600009F445C480918D03811141C480918E0392
:101E7000843008F43CC41092900383E090E00E9408
:101E8000860A082F80938C0384E090E00E94860AE3
:101E9000382F85E090E03F870E94860A282F3F85F3
:101EA000323009F4A1C218F4313041F01EC434308C
:101EB00009F4D6C3353009F416C417C4813059F07B
:101EC0008FEF2F870E94AA0A85E50E94AA0A802F19
:101ED0000E94AA0A2F8586E090E02F870E94860A3A
:101EE000082FC82ED12C2F85263109F452C288F430
:101EF000203109F4C6C030F4222309F4A6C12130F0
:101F000079F169C2213109F422C1253109F462C194
:101F100062C2243209F40AC2A0F42E3109F4D2C1FB
:101F20002F3109F058C2F601EE0FFF1FEE5BFE4F96
:101F3000008160E0802F0E946F03802F0E940A04BE
:101F4000C7C1253209F4CBC1223309F044C26091E4
:101F5000950370919603809197039091980316C210
:101F60008091D00490E08C159D0569F0F601EE0F8C
:101F7000FF1FE657FE4F80818093CE0481818093BE
:101F8000CF040093D0040E94E8048090D404909081
:101F9000D504A090D604B090D704DC01CB018819F9
:101FA0009909AA09BB094897A105B10510F010933A
:101FB000D3048091D304882309F43DC00E94E8042F
:101FC0006093D4047093D5048093D6049093D7047F
:101FD0001092D30460E08EEC94E00E94700783E0DE
:101FE00090E00197F1F761E08EEC94E00E947007B9
:101FF00083E290E00197F1F760E08EEC94E00E94BC
:10200000700760E08091CF040E946F0348EB56E5B3
:1020100060E070E08091CF040E94CD0B4B015C0129
:102020000E94F5176093D8047093D9048093DA0462
:102030009093DB040CC06091D8047091D904809116
:10204000DA049091DB040E94B1154B015C0181140C
:102050009104A104B10431F440EA842E4AE5942E9F
:10206000A12CB12C8FEF0E94AA0A85E50E94AA0A32
:1020700080918C030E94AA0AC501B4010E94F51741
:102080007FC1A0909303B0909403A114B104A1F474
:102090008CE790E00E94E7156C01602F0E94DE063D
:1020A000F6013182208280A1E858FF4F8083D6015B
:1020B0005F968C91319631C0F50181A190E08C152D
:1020C0009D0599F126E231E031832083E259FF4FEB
:1020D000808191810E947C16E6E1F1E0D501ED93CB
:1020E000FC93C5010E94B008C5010E947C168CE7D4
:1020F00090E00E94E7156C01602F0E94DE06D60179
:1021000011963C922E9290968C91F601E858FF4FD2
:102110008083F601878DE758FF4F8083D092940328
:10212000C0929303C6010E94C608E0919303F09108
:102130009403E658FF4F608160937B038FEF860F17
:102140008E3F08F47CC060E070E0CB011FC180913D
:10215000CC0490E08C159D05A9F0F601EE0FFF1F51
:10216000E657FE4F80818093CA0491819093CB04FF
:102170000093CC0460E00E946F0360E08091CB0488
:102180000E946F0360E08091CA040E946F038091F7
:10219000CA040E9416036C0160E08091CB040E9487
:1021A0006F038091CB040E94160361E070E0CD289C
:1021B00011F460E070E0660F771F21E030E0892BBA
:1021C00011F420E030E0620F731F072E000C880B23
:1021D000990B82C087E090E00E94860A282F30E0A9
:1021E0004091CC0450E04C155D0509F083C240914C
:1021F000CD0450E04217530709F07CC262E0213061
:10220000310561F48091CA040E946F0360E08091FF
:10221000CA040E946F038091CA040BC08091CB0452
:102220000E946F0360E08091CB040E946F03809155
:10223000CB040E94160361E0892B09F060E070E096
:1022400080E090E00E94F317A1C01A8219821C82DC
:102250001B821E821D826091A9047091AA046115DF
:10226000710541F04091AD045091AE04CE0101964C
:102270000E94FA0B0D81C02EDE8084E00E94AA0A23
:10228000802F0E94AA0AA12CB12CAC14BD04ACF47E
:102290008D819E81A816B90648F489819A8100979C
:1022A00029F0FC01EA0DFB1D808101C080E00E9445
:1022B000AA0AFFEFAF1ABF0AE8CF89819A810E946C
:1022C0007C1689C060E00E946F03802F0E94160375
:1022D000BC01990F880B990B0E94F51757C087E036
:1022E00090E00E94920A6C0160E0802F0E946F03D0
:1022F000A601DD0C660B770B802F0E94CD0B4B01E6
:102300005C0183E00E94AA0AC501B4010E94F31790
:102310000E94B115862F262F372F3093110320935B
:1023200010030E94AA0A8091110353C087E090E035
:102330000E94860AD82E61E0802F0E946F0360E021
:10234000802F0E943F0383E090E00197F1F761E066
:10235000802F0E943F0383E290E00197F1F760E055
:10236000802F0E943F0360E08D2D0E946F0340E3A9
:1023700055E760E070E08D2D0E94CD0B0E94F317B1
:1023800020E030E048E652E40E943F150E94AF0A88
:1023900022C08091B10490E08C159D0569F0F60192
:1023A000EE0FFF1FE657FE4F80818093AF048181BF
:1023B0008093B0040093B104D0909D0387E090E037
:1023C0000E94860A01E0D81200E081E00E94AA0A79
:1023D000802F0E94AA0A42E050E06BEB71E08EE988
:1023E00093E00E94F30A81C186E090E02F870E946B
:1023F000860A982EC82ED12C2F85203209F46CC065
:10240000F0F42B30B9F12E3109F45CC02A3009F018
:102410006AC187E090E00E94920AF601EE0FFF1F6A
:10242000E657FE4F20812093DC0421812093DD04B8
:102430009092DE04F092E304E092E20452C1223270
:1024400009F457C008F4C3C0223309F04CC10E94FC
:10245000E8040E94F31720E030E04AE754E40E94C9
:102460003F156093990370939A0380939B03909315
:102470009C0339C187E090E00E94860AB601660F8E
:10248000771FFB01E657FE4F813011F4C08001C079
:10249000C180D12C88E090E00E94860A082FECE7EA
:1024A000F3E020E030E0419151914C155D0509F4D5
:1024B000ADC0452B09F49BC02F5F3F4F283031053D
:1024C00091F7A2C061E00E946F0387E090E00E9454
:1024D000860A682F892D78C061E00E946F0387E02B
:1024E00090E00E94860A682F70E0892D0E94AB035D
:1024F000FAC061E00E946F0387E090E00E94920AB8
:102500006C0189E090E00E94920A5C019092830441
:10251000181619060CF051C0960140E050E060E436
:1025200072E48FE090E00E94A31829013A0169014A
:1025300037FF03C02FEFC21AD20AD594C79461E0C7
:10254000892D0E946F0328EE33E0D5010E94B1145B
:102550006F83788789879A874201550CAA08BB0840
:1025600080E090E0DC019C01AD01280D391D4A1D81
:102570005B1D2B873C874D875E872F81388549857A
:102580005A8582179307A407B50708F0ACC061E02D
:10259000809183040E943F03C6010E94210460E0F1
:1025A000809183040E943F03C6010E942104A895E4
:1025B0008B859C85AD85BE85D6CF61E0892D0E9437
:1025C0006F0360E0809183040E943F038CC087E02A
:1025D00090E00E94860A082FECE7F3E020E030E06C
:1025E000419151914C155D0589F0452B41F4F9015C
:1025F000EE0FFF1FE458FC4FD182C08207C02F5F4F
:102600003F4F2830310561F720E030E0F901EE0F4F
:10261000FF1F2E0F3F1FF901EC51FB4F808191816D
:10262000A28189839A83AB83053B08F05CC08981D2
:1026300090E0FC01EE0FFF1F8E0F9F1FFC01EC5777
:10264000FB4F808187FD05C0B601CE0101960E9437
:10265000C105602F70E0CE0101960E943E0543C087
:1026600086E08093DC0487E08093DD0409E000933A
:10267000DE04F092E304E092E20480E090E03F8721
:102680000E94900B85E08093DC043F853093DD044D
:102690002AE0D22ED092DE04F092E304E092E2042B
:1026A00080E090E00E94900B8BE08093DC04D0925D
:1026B000DD041093DE04F092E304E092E20480E093
:1026C00090E00E94900B83E08093DC040093DD0493
:1026D00082E08093DE04F092E304E092E20480E082
:1026E00090E00E94900B0E94E50A10928E030E94D7
:1026F0004F0112CAF601EE0FFF1FE657FE4F908101
:102700009093CA0491819093CB040093CC0480935E
:10271000CD0474CD8091A9049091AA040C947C16E8
:102720001092A1031092A00388EE93E0A0E0B0E025
:102730008093A2039093A303A093A403B093A50353
:1027400026E531E030939F0320939E0325EC30E093
:102750003093AB032093AA0324EC30E03093AD0315
:102760002093AC0320EC30E03093AF032093AE0312
:1027700021EC30E03093B1032093B00322EC30E041
:102780003093B3032093B20326EC30E03093B503CB
:102790002093B4031092B7031092B8031092B903B8
:1027A0001092BA0310924104109242041092430412
:1027B000109244041092450410924604109247046B
:1027C000109248041092490410924A0410924B044B
:1027D00010924C0410924D0410924E0410924F042B
:1027E0001092500421E030E0309309052093080551
:1027F00010920A0610920B0610920C0610920D060B
:1028000010920E0610920F061092100610921106EA
:1028100010921206109213061092140610921506CA
:1028200010921606109217061092190610921806AA
:1028300010921A0610921B0610921C0610921D068A
:1028400010921E0610921F0610922006109221066A
:10285000109222061092FF041092FE04809300054D
:1028600090930105A0930205B093030586E691E0DD
:102870009093FD048093FC048091A804A4EEB4E03E
:102880009FEF48EB5BE08C3078F48C93282F30E09E
:10289000F901EE0FFF1F2E0F3F1FF901EC57FB4F01
:1028A000528341838F5F01C09C93139624E0AC3F19
:1028B000B20749F78093A8041092DC041092DD045B
:1028C0001092DE041092CE041092CF041092D00425
:1028D0001092CA041092CB041092CC041092C60439
:1028E0001092C7041092C80488E080938304109269
:1028F000AF041092B0041092B1041092AA04109286
:10290000A9041092AC041092AB041092AE04109281
:10291000AD0449E050E068EC71E089EA94E00C9481
:10292000FA0B991B79E004C0991F961708F0961BC3
:10293000881F7A95C9F78095089597FB072E16F49E
:10294000009407D077FD09D00E94B81407FC05D089
:102950003EF4909581959F4F0895709561957F4FB6
:1029600008950E940C19B7FF0895821B930B0895D8
:10297000AA1BBB1B51E107C0AA1FBB1FA617B707A5
:1029800010F0A61BB70B881F991F5A95A9F78095C1
:102990009095BC01CD010895EE0FFF1F0590F491B5
:1029A000E02D09945058BB27AA270E94EA140C94E2
:1029B00047180E94391838F00E94401820F039F466
:1029C0009F3F19F426F40C9436180EF4E095E7FBBB
:1029D0000C943018E92F0E94581858F3BA17620760
:1029E00073078407950720F079F4A6F50C947A18FC
:1029F0000EF4E0950B2EBA2FA02D0B01B90190011A
:102A00000C01CA01A0011124FF27591B99F0593F5D
:102A100050F4503E68F11A16F040A22F232F342FA5
:102A20004427585FF3CF469537952795A795F040F3
:102A30005395C9F77EF41F16BA0B620B730B840B08
:102A4000BAF09150A1F0FF0FBB1F661F771F881FC0
:102A5000C2F70EC0BA0F621F731F841F48F4879518
:102A600077956795B795F7959E3F08F0B0CF93950A
:102A7000880F08F09927EE0F9795879508950E9483
:102A800053150C9447180E94401858F00E943918AA
:102A900040F029F45F3F29F00C94301851110C9448
:102AA0007B180C9436180E94581868F39923B1F3D8
:102AB000552391F3951B550BBB27AA276217730764
:102AC000840738F09F5F5F4F220F331F441FAA1FF8
:102AD000A9F335D00E2E3AF0E0E832D091505040B4
:102AE000E695001CCAF72BD0FE2F29D0660F771F62
:102AF000881FBB1F261737074807AB07B0E809F048
:102B0000BB0B802DBF01FF2793585F4F3AF09E3FCC
:102B1000510578F00C9430180C947B185F3FE4F367
:102B2000983ED4F3869577956795B795F7959F5F0F
:102B3000C9F7880F911D9695879597F90895E1E05B
:102B4000660F771F881FBB1F621773078407BA07BA
:102B500020F0621B730B840BBA0BEE1F88F7E09515
:102B600008950E94B8156894B1110C947B180895CB
:102B70000E94601888F09F5798F0B92F9927B75195
:102B8000B0F0E1F0660F771F881F991F1AF0BA9511
:102B9000C9F714C0B13091F00E947A18B1E00895DD
:102BA0000C947A18672F782F8827B85F39F0B93FCF
:102BB000CCF3869577956795B395D9F73EF49095C4
:102BC0008095709561957F4F8F4F9F4F0895CF935C
:102BD000DF938230910510F482E090E0E0912506C9
:102BE000F091260620E030E0C0E0D0E0309711F10F
:102BF0004081518148175907C0F04817590761F4BF
:102C000082819381209719F09B838A832BC09093B4
:102C100026068093250626C02115310519F0421796
:102C2000530718F49A01BE01DF01EF010280F3811E
:102C3000E02DDCCF2115310509F1281B390B24309B
:102C4000310590F412968D919C9113976115710541
:102C500021F0FB019383828304C090932606809326
:102C60002506FD01329644C0FD01E20FF31F81935A
:102C70009193225031092D933C933AC02091230621
:102C800030912406232B41F420910201309103015D
:102C900030932406209323062091000130910101F6
:102CA0002115310541F42DB73EB7409104015091F3
:102CB0000501241B350BE0912306F0912406E21751
:102CC000F307A0F42E1B3F0B2817390778F0AC014F
:102CD0004E5F5F4F2417350748F04E0F5F1F50932C
:102CE0002406409323068193919302C0E0E0F0E034
:102CF000CF01DF91CF9108950F931F93CF93DF936F
:102D0000009709F48CC0FC01329713821282009163
:102D10002506109126060115110581F420813181C7
:102D2000820F931F2091230630912406281739071C
:102D300079F5F0932406E093230671C0D80140E0B2
:102D400050E0AE17BF0750F412962D913C911397A7
:102D5000AD012115310509F1D901F3CF9D01DA014A
:102D60003383228360817181860F971F82179307B7
:102D700069F4EC0128813981260F371F2E5F3F4F00
:102D8000318320838A819B8193838283452B29F41D
:102D9000F0932606E093250642C01396FC93EE932B
:102DA0001297ED01499159919E01240F351FE217A9
:102DB000F30771F480819181840F951F029611961B
:102DC0009C938E938281938113969C938E931297FA
:102DD000E0E0F0E0D80112968D919C911397009756
:102DE00019F0F8018C01F6CF8D919C9198012E5F1E
:102DF0003F4F820F931F20912306309124062817FE
:102E0000390769F4309729F41092260610922506A6
:102E100002C0138212821093240600932306DF91CE
:102E2000CF911F910F910895A0E0B0E0EAE1F7E1A2
:102E30000C94D918EC01009721F4CB010E94E715FE
:102E4000B8C0FC01E60FF71F9C0122503109E217C0
:102E5000F30708F4ACC0D9010D911C911197061726
:102E60001707B0F00530110508F49FC0C80104979A
:102E70008617970708F499C002501109061B170B13
:102E8000019311936D937C93CF010E947C168DC0AA
:102E90005B01A01AB10A4C01800E911EA09125067B
:102EA000B091260640E050E0E12CF12C109709F497
:102EB0004AC0A815B905D1F56D907C9011976301B2
:102EC00082E0C80ED11CCA14DB0480F1A3014A19A8
:102ED0005B096A0182E0C80ED11C1296BC90129761
:102EE0001396AC91B5E0CB16D10440F0B282A38327
:102EF00051834083D9016D937C930AC00E5F1F4FAD
:102F0000C301800F911FF90191838083EB2DFA2F6C
:102F1000E114F10431F0D7011396FC93EE9312976C
:102F200044C0F0932606E09325063FC08D919C9106
:102F300011974817590708F4AC017D0112960D90BE
:102F4000BC91A02DB3CF80912306909124068815C3
:102F50009905E1F446175707C8F480910001909154
:102F60000101009741F48DB79EB740910401509143
:102F70000501841B950BE817F907C8F4F0932406A4
:102F8000E0932306F901718360830FC0CB010E9497
:102F9000E7157C01009759F0A801BE010E94E317D4
:102FA000CE010E947C16C70104C0CE0102C080E0A1
:102FB00090E0CDB7DEB7EEE00C94F51881E090E03C
:102FC000F8940C941B19FB01DC0102C001900D92D6
:102FD00041505040D8F70895FB01DC0101900D925B
:102FE0000020E1F70895E89409C097FB3EF490951E
:102FF0008095709561957F4F8F4F9F4F9923A9F0D2
:10300000F92F96E9BB279395F69587957795679560
:10301000B795F111F8CFFAF4BB0F11F460FF1BC0A4
:103020006F5F7F4F8F4F9F4F16C0882311F096E937
:1030300011C0772321F09EE8872F762F05C06623E5
:1030400071F096E8862F70E060E02AF09A95660F9E
:10305000771F881FDAF7880F9695879597F9089557
:1030600097F99F6780E870E060E008959FEF80EC3B
:10307000089500240A9416161706180609060895DE
:1030800000240A9412161306140605060895092E44
:103090000394000C11F4882352F0BB0F40F4BF2BB3
:1030A00011F460FF04C06F5F7F4F8F4F9F4F0895F3
:1030B00057FD9058440F551F59F05F3F71F04795E9
:1030C000880F97FB991F61F09F3F79F087950895CE
:1030D000121613061406551FF2CF4695F1DF08C0ED
:1030E000161617061806991FF1CF8695710561050A
:1030F00008940895E894BB2766277727CB0197F9B2
:103100000895A1E21A2EAA1BBB1BFD010DC0AA1F28
:10311000BB1FEE1FFF1FA217B307E407F50720F040
:10312000A21BB30BE40BF50B661F771F881F991FBB
:103130001A9469F760957095809590959B01AC0104
:10314000BD01CF010895052E97FB1EF400940E9447
:10315000BA1857FD07D00E94811807FC03D04EF41F
:103160000C94BA1850954095309521953F4F4F4F8C
:103170005F4F089590958095709561957F4F8F4F23
:103180009F4F08950E940C19A59F900DB49F900D1C
:10319000A49F800D911D11240895B7FF0C94C218AF
:1031A0000E94C218821B930B08952F923F924F9258
:1031B0005F926F927F928F929F92AF92BF92CF92C7
:1031C000DF92EF92FF920F931F93CF93DF93CDB7D0
:1031D000DEB7CA1BDB0B0FB6F894DEBF0FBECDBF48
:1031E00009942A88398848885F846E847D848C8419
:1031F0009B84AA84B984C884DF80EE80FD800C8122
:103200001B81AA81B981CE0FD11D0FB6F894DEBF04
:103210000FBECDBFED010895A29FB001B39FC001C5
:10322000A39F700D811D1124911DB29F700D811DF2
:103230001124911D089510E0C2E6D0E004C0FE0103
:103240000E94CC142196C336D107C9F7F894FFCF5A
:1032500000002706800001000000010000000202BB
:10326000030400000000C001F30A1E023602A70199
:10327000BF01000000001402F30A6E049004A701CD
:10328000BF01000000001402F30A6E04AA04A701A3
:10329000BF010E000F0010001100120013001400F7
:1032A000150000000000E600F30AAF008D00A10049
:1032B0002D0100000000AB02970290028D028A02ED
:1032C000890200000000BC02F30ABC02BC02BC027E
:1032D000BC0200000000BC02F30A00000B0A030954
:1032E0000C0D080200001011140F150E060705043E
:1032F000000000000000000000000000564D445097
:10330000565F317C315F564D4450560D0A0056656C
:103310007273696F6E3A200030612E30312E313079
:02332000360075
:107E0000112484B714BE81FFF0D085E080938100F7
:107E100082E08093C00088E18093C10086E0809377
:107E2000C20080E18093C4008EE0C9D0259A86E02C
:107E300020E33CEF91E0309385002093840096BBD3
:107E4000B09BFECF1D9AA8958150A9F7CC24DD24C4
:107E500088248394B5E0AB2EA1E19A2EF3E0BF2EE7
:107E6000A2D0813461F49FD0082FAFD0023811F036
:107E7000013811F484E001C083E08DD089C08234E0
:107E800011F484E103C0853419F485E0A6D080C0E4
:107E9000853579F488D0E82EFF2485D0082F10E0AE
:107EA000102F00270E291F29000F111F8ED06801E7
:107EB0006FC0863521F484E090D080E0DECF843638
:107EC00009F040C070D06FD0082F6DD080E0C81688
:107ED00080E7D80618F4F601B7BEE895C0E0D1E017
:107EE00062D089930C17E1F7F0E0CF16F0E7DF06D8
:107EF00018F0F601B7BEE89568D007B600FCFDCFD4
:107F0000A601A0E0B1E02C9130E011968C91119780
:107F100090E0982F8827822B932B1296FA010C0160
:107F200087BEE89511244E5F5F4FF1E0A038BF0790
:107F300051F7F601A7BEE89507B600FCFDCF97BE46
:107F4000E89526C08437B1F42ED02DD0F82E2BD052
:107F50003CD0F601EF2C8F010F5F1F4F84911BD097
:107F6000EA94F801C1F70894C11CD11CFA94CF0C13
:107F7000D11C0EC0853739F428D08EE10CD085E9AC
:107F80000AD08FE07ACF813511F488E018D01DD067
:107F900080E101D065CF982F8091C00085FFFCCF94
:107FA0009093C60008958091C00087FFFCCF809118
:107FB000C00084FD01C0A8958091C6000895E0E648
:107FC000F0E098E1908380830895EDDF803219F02E
:107FD00088E0F5DFFFCF84E1DECF1F93182FE3DFCA
:107FE0001150E9F7F2DF1F91089580E0E8DFEE27F6
:047FF000FF270994CA
:027FFE00040479
:0400000300007E007B
:00000001FF